:100000000C942A000C9447000C9447000C94470071
:100010000C9447000C9447000C9447000C94470044
:100020000C9447000C9447000C9447000C94470034
:100030000C9447000C9447000C9447000C94470024
:100040000C9447000C9447000C9447000C94470014
:100050000C94470011241FBECFE5D8E0DEBFCDBF12
:1000600010E0A0E6B0E0EAE4F9E002C005900D92ED
:10007000AC38B107D9F710E0ACE8B0E001C01D9290
:10008000AE3CB107E1F70E94F5020C94A3040C9476
:100090000000DF93CF93CDB7DEB710928C00809134
:1000A0008C00882F90E0FC01E059FF4F80810E9476
:1000B0008503CF91DF910895DF93CF93CDB7DEB75E
:1000C00080918C00882F90E0FC01E059FF4F8081E7
:1000D0000E948503CF91DF910895DF93CF93CDB731
:1000E000DEB780E00E948503CF91DF910895DF9312
:1000F000CF930F92CDB7DEB78983898180938C002F
:1001000080918C00882F90E0FC01E059FF4F8081A6
:100110000E9485030F90CF91DF910895DF93CF93D5
:1001200000D000D0CDB7DEB78A837C836B838A8111
:10013000803210F0198211C081E089838A81882F72
:1001400090E0880F991FFC01E558FF4F0190F08166
:10015000E02D8081EB81FC81808389810F900F905D
:100160000F900F90CF91DF910895DF93CF9300D040
:100170000F92CDB7DEB78A836B838A81803210F00D
:1001800019820FC081E089838A81882F90E0880FCF
:10019000991FFC01ED58FF4F0190F081E02D8B81FC
:1001A000808389810F900F900F90CF91DF910895F8
:1001B000DF93CF9300D00F92CDB7DEB78A836B83E6
:1001C0008A81803210F019820FC081E089838A8190
:1001D000882F90E0880F991FFC01ED57FF4F019089
:1001E000F081E02D8B81808389810F900F900F909B
:1001F000CF91DF910895DF93CF9300D000D0CDB79A
:10020000DEB78A837C836B838A81803210F0198207
:1002100011C081E089838A81882F90E0880F991F1F
:10022000FC01ED57FF4F0190F081E02D8081EB81C3
:10023000FC81808389810F900F900F900F90CF9158
:10024000DF910895DF93CF9300D000D000D0CDB7D9
:10025000DEB78C837E836D838C81869586958695AB
:100260008A838C81877089838C81803210F01B8215
:100270001EC081E08B838A81882F90E0880F991FB0
:10028000FC01E558FF4F0190F081E02D8081282F7F
:1002900030E08981882F90E0A90102C055954795EB
:1002A0008A95E2F7CA018170ED81FE8180838B819E
:1002B00026960FB6F894DEBF0FBECDBFCF91DF916B
:1002C0000895DF93CF9300D000D00F92CDB7DEB763
:1002D0008C836D838C818695869586958A838C81A7
:1002E000877089838C81803210F01B8269C08D8178
:1002F000882391F18A81882F90E0880F991FFC0153
:10030000ED58FF4F608171818A81882F90E0880FBE
:10031000991FFC01ED58FF4FA081B1818A81882F80
:1003200090E0880F991FFC01ED58FF4F0190F0817C
:10033000E02D8081482F8981282F30E081E090E0F6
:10034000022E02C0880F991F0A94E2F7842B8C9327
:100350008C91FB01808332C08A81882F90E0880FC6
:10036000991FFC01ED58FF4F608171818A81882FB0
:1003700090E0880F991FFC01ED58FF4FA081B181DB
:100380008A81882F90E0880F991FFC01ED58FF4F5C
:100390000190F081E02D8081482F8981282F30E065
:1003A00081E090E0022E02C0880F991F0A94E2F7C4
:1003B000809584238C938C91FB01808381E08B83D7
:1003C0008B810F900F900F900F900F90CF91DF9136
:1003D0000895DF93CF9300D000D00F92CDB7DEB752
:1003E0008C836D838C818695869586958A838C8196
:1003F000877089838C81803210F01B8269C08D8167
:10040000882391F18A81882F90E0880F991FFC0141
:10041000ED57FF4F608171818A81882F90E0880FAE
:10042000991FFC01ED57FF4FA081B1818A81882F70
:1004300090E0880F991FFC01ED57FF4F0190F0816C
:10044000E02D8081482F8981282F30E081E090E0E5
:10045000022E02C0880F991F0A94E2F7842B8C9316
:100460008C91FB01808332C08A81882F90E0880FB5
:10047000991FFC01ED57FF4F608171818A81882FA0
:1004800090E0880F991FFC01ED57FF4FA081B181CB
:100490008A81882F90E0880F991FFC01ED57FF4F4C
:1004A0000190F081E02D8081482F8981282F30E054
:1004B00081E090E0022E02C0880F991F0A94E2F7B3
:1004C000809584238C938C91FB01808381E08B83C6
:1004D0008B810F900F900F900F900F90CF91DF9125
:1004E0000895DF93CF9300D000D000D0CDB7DEB712
:1004F0008C837E836D838C818695869586958A8391
:100500008C81877089838C81803210F01B821EC0A1
:1005100081E08B838A81882F90E0880F991FFC01EE
:10052000ED57FF4F0190F081E02D8081282F30E0C2
:100530008981882F90E0A90102C0559547958A9539
:10054000E2F7CA018170ED81FE8180838B8126965E
:100550000FB6F894DEBF0FBECDBFCF91DF910895E7
:10056000DF93CF93CDB7DEB7E0918300F0918400A5
:100570001082E0918500F091860088E08083E09110
:100580008700F09188001082E0918900F0918A0044
:100590001082A0917300B0917400E0917300F0910B
:1005A000740080818C93A0917500B0917600E091E9
:1005B0007500F09176008081877F8C93A091770001
:1005C000B0917800E0917700F091780080818C9371
:1005D000A0917900B0917A00E0917900F0917A00D1
:1005E00080818C93CF91DF910895DF93CF93CDB726
:1005F000DEB729970FB6F894DEBF0FBECDBF1C82C1
:100600001B821A8219820E94B0020E9496030E94E5
:1006100077030E9449009E012A5F3F4F82E0B901A3
:100620000E949D038E81813071F48A81882359F460
:1006300081E08A8319868981882311F421E0298742
:100640003985398304C08E81882309F41A8289810F
:10065000813009F049C09E012B5F3F4F81E0B90115
:100660000E949D038D81813069F48B81882351F430
:1006700081E08B838C818F5F8C838C81843031F41B
:100680001C8204C08D81882309F41B828C81282F51
:1006900030E038872F838F81988581309105C1F0B4
:1006A0002F813885223031052CF48F819885009771
:1006B00061F0B1CF2F8138852230310569F08F810B
:1006C00098858330910561F0A6CF0E946D00A3CF7D
:1006D00080E00E9477009FCF81E00E9477009BCF4F
:1006E00082E00E94770097CF0E946D0094CFDF9345
:1006F000CF93CDB7DEB7A3E5B0E0E3E5F0E08081CE
:1007000089668C93CF91DF910895DF93CF9300D0CA
:10071000CDB7DEB78A838A818983ECE5F0E08981F1
:1007200080830F900F90CF91DF910895DF93CF9347
:10073000CDB7DEB7CF91DF910895DF93CF9300D08F
:1007400000D00F92CDB7DEB789837B836A8389811E
:10075000882F90E00197FC01E05AFF4F80812DEC3B
:1007600030E0B9010E9422018981882F90E0019731
:10077000FC01E357FF4F8081282F30E03D832C831D
:100780008C819D818130910541F12C813D81223008
:10079000310509F442C08C819D81009709F0CBC0DE
:1007A0008091CD008130A9F48981882F90E0019754
:1007B000FC01E357FF4F82E080838981882F90E01E
:1007C0000197FC01E356FF4F1082EA81FB81108202
:1007D000B2C0EA81FB811082AEC08091CD00882337
:1007E000B9F48981882F90E00197FC01E357FF4F0E
:1007F00082E080838981882F90E00197FC01E35695
:10080000FF4F81E08083EA81FB8181E0808393C098
:10081000EA81FB8181E080838EC08091CD008130B0
:1008200039F58981882F90E00197FC01E355FF4F4E
:1008300010828981882F90E09C012150304089816D
:10084000882F90E00197FC01E354FF4F80818F5F78
:10085000F901E354FF4F80838981882F90E001974D
:10086000FC01E356FF4F8081EA81FB81808326C033
:100870008981882F90E00197FC01E354FF4F10829B
:100880008981882F90E09C01215030408981882FF8
:1008900090E00197FC01E355FF4F80818F5FF901E4
:1008A000E355FF4F80838981882F90E00197FC01F9
:1008B000E356FF4F8081EA81FB8180838981882F05
:1008C00090E00197FC01E354FF4F80818A30B1F43E
:1008D0008981882F90E00197FC01E357FF4F81E069
:1008E00080838981882F90E00197FC01E354FF4FBA
:1008F0001082EA81FB8181E080831DC08981882F7D
:1009000090E00197FC01E355FF4F80818A3099F414
:100910008981882F90E00197FC01E357FF4F1082F7
:100920008981882F90E00197FC01E355FF4F1082E9
:10093000EA81FB8110820F900F900F900F900F9023
:0A094000CF91DF910895F894FFCFE6
:10094A000001030303030303030303030303030372
:10095A001E5AC83B003800350032003900360033D1
:0C096A000030003A00370034003100007B
:00000001FF
